:020000040800F2
:10000000301400207D020008B7190008C518000848
:10001000B5190008B50300082123000800000000FE
:100020000000000000000000000000009D0100082A
:10003000B703000800000000F9010008D91C0008FF
:10004000970200089702000897020008970200082C
:10005000970200089702000897020008970200081C
:10006000970200089702000897020008970200080C
:1000700097020008970200089702000897020008FC
:1000800097020008970200089702000897020008EC
:1000900097020008970200089702000897020008DC
:1000A00097020008970200089702000897020008CC
:1000B000BD1D00089702000897020008970200087B
:1000C00097020008970200089702000897020008AC
:1000D000970200089702000897020008970200089C
:1000E000B903000897020008970200089702000869
:1000F000970200089702000897020008970200087C
:10010000970200089702000897020008970200086B
:10011000891E00089702000897020008970200084D
:10012000970200089702000897020008970200084B
:10013000970200089702000897020008970200083B
:10014000970200089702000897020008970200082B
:10015000970200089702000897020008970200081B
:10016000970200089702000897020008970200080B
:10017000970200089702000897020008000000009C
:100180009702000897020008DFF80CD000F000F991
:100190000048004761230008301400202C4B1968E8
:1001A000086800F05AB880F30988BFF36F8F4FF0EA
:1001B000000080F3118870470000000008480068C4
:1001C000006880F308884FF0000080F3148862B65E
:1001D00061B6BFF34F8FBFF36F8F00DF00BF00BF6B
:1001E00008ED00E0DFF80C00016841F470010160E7
:1001F000704700BF88ED00E0EFF30980BFF36F8F19
:10020000134B1A681EF0100F08BF20ED108A20E96A
:10021000F04F106009B44FF0500080F31188BFF325
:100220004F8FBFF36F8F02F05FFC4FF0000080F341
:10023000118809BC1968086800F014B81EF0100F86
:1002400008BF00F014B880F30988BFF36F8F7047C0
:1002500014000020EFF30580704730C8B0E8C04FAD
:10026000FFF7A1BF30C8B0E8C04FFFF7E7BFB0EC61
:10027000088AB0EC08CAFFF7E6BF000006488047CE
:1002800006480047FEE7FEE7FEE7FEE7FEE7FEE77B
:10029000FEE7FEE7FEE7FEE7791D0008890100089A
:1002A0002DE9F05F0546002092469B4688460646AB
:1002B000814640241BE0284641464746224600F03E
:1002C00056F853465A46C01A914110D31146184663
:1002D000224600F03DF82D1A67EB01084F462246F2
:1002E0000120002100F034F817EB00094E41201ED8
:1002F000A4F10104DFDC484631462A46434600F0BB
:1003000000B830BCBDE8C09F40EA01039B0703D0A2
:1003100009E008C9121F08C0042AFAD203E011F844
:10032000013B00F8013B521EF9D27047D2B201E006
:1003300000F8012B491EFBD270470022F6E710B5EA
:1003400013460A4604461946FFF7F0FF204610BD43
:10035000202A04DB203A00FA02F100207047914085
:10036000C2F1200320FA03F3194390407047202A7A
:1003700004DB203A21FA02F00021704721FA02F34F
:10038000D040C2F120029140084319467047000056
:10039000064C074D06E0E06840F0010394E80700D2
:1003A00098471034AC42F6D3FFF7F2FEEC2E00086B
:1003B0000C2F0008FEE770474FF4005000F03CB8E7
:1003C00010B590F825100024022903D00421C16340
:1003D00001241AE001680A6822F00E020A6001682E
:1003E0000A6822F001020A6090F84410036C01F0E0
:1003F0001C02012101FA02F25A6080F82510002146
:1004000080F82410816B01B18847204610BD0000A0
:1004100070B5044600F054F90546601C02D004484B
:100420004068044400F04CF9401BA042FAD370BD70
:100430000400002070470000044910B50A68024219
:1004400002D00860FFF7F6FF10BD00001404014061
:100450002DE9F04FDFF83492002309F1040A01245A
:1004600003250AF1040B87B00F270BF1040E04E1FA
:1004700004FA03F632407CD0D1F804C0BCF1010F7D
:1004800008D0BCF1020F05D0BCF1110F02D0BCF1B5
:10049000120F29D1D0F808C0CDF800C04FEA430CA4
:1004A00005FA0CF8CDF80CC0DDF800C02CEA080CF9
:1004B000CDF800C0D1F80C80DDF80CC008FA0CF8BB
:1004C000DDF800C048EA0C08C0F80880D0F80480C5
:1004D00091F804C028EA0608CCF3001C0CFA03FCCF
:1004E0004CEA080CC0F804C0D1F804806FEA080C8C
:1004F0005FEA8C7C09D1D0F82CC02CEA060CC8F33A
:10050000C0069E4046EA0C06C662D0F80CC04FEA10
:10051000430805FA08F62CEA060CCDF8148002967A
:100520008E6806FA08F646EA0C06C6604E68022E89
:1005300001D0122E15D1DE0800EB86060396366A2E
:100540004FEA437C4FEADC6807FA08FC26EA0C060F
:10055000D1F810C00CFA08FC4CEA060C039EC6F851
:1005600020C00668DDF808C026EA0C0691F804C031
:1005700000E081E0DDF814800CF0030C0CFA08FCBC
:100580004CEA060CC0F800C04E68F60074D5404E28
:10059000D6F860C04CF0010CC6F860C0366E23F08F
:1005A000030C06F0010600963A4E66440296D6F811
:1005B00008C09E074FEA167807FA08F62CEA060CE0
:1005C000B0F1904F04D0344EB04203D101261BE06D
:1005D000002619E0314EB04201D1022614E0304E1F
:1005E000B04201D103260FE02E4EB04201D10426C5
:1005F0000AE02D4EB04201D1052605E02B4EB04257
:1006000001D1062600E0072606FA08F646EA0C069F
:10061000DDF808C0CCF80860D9F80060CC46D1F805
:10062000048096435FEAC83800D51643CCF80060D2
:10063000DAF80060D446D1F8048096435FEA88383F
:1006400000D51643CCF80060DBF80060DC46D1F83A
:10065000048096435FEAC82800D51643CCF80060B2
:10066000DEF80060F446D1F8048096435FEA8828FB
:1006700000D51643CCF800605B1C0A6832FA03F61A
:100680007FF4F6AE07B000F013B80000000401409C
:10069000001002400000014000040048000800482B
:1006A000000C0048001000480014004800180048E2
:1006B00030BCBDE8C08F0AB181617047816270476C
:1006C00001488068704700000400002002488168EB
:1006D000426811448160704704000020094810B549
:1006E0000168002441F480710160032000F08CF85F
:1006F000002000F009F808B1012401E000F03CF806
:10070000204610BD0020024000B5014687B00022FF
:100710001C2000F059F81C2000F048F81348816DA7
:1007200041F001018165806D05A900F0010006908E
:10073000684600F01FFB00F03DFB0D494FF0804282
:10074000B0FBF1F10B48491E0260416040F2E73214
:100750000021C0E90321816000F039FE10B10120C1
:1007600007B000BD034800F04FFEF9E7001002405B
:1007700040420F00480300200B4882B0016E41F058
:1007800001010166016E01F001010091816D41F0EE
:1007900080518165806D002200F0805000900F2113
:1007A000901E02B000F010B800100240002809DBD3
:1007B00000F01F02012191404009800000F1E0207B
:1007C000C0F8001170470000F0B40E4B1B680C46D7
:1007D000C3F30223C3F10705042D00D90425191D15
:1007E000072901D2002300E0DB1E012606FA05F1ED
:1007F000491E214099409E40761E16403143F0BC70
:1008000001F08FBD0CED00E0064900F0070208681A
:100810004FF6FF03184040EA0220034A10430860E5
:10082000704700000CED00E00000FA051649B0F535
:10083000007F0868C0F3412009D0022805D008686D
:1008400020F4C06040F480600860002070470128F8
:10085000FBD0086820F4C06040F4007008600B48CA
:100860003222006850430A4AB0FBF2F0401C00E01C
:10087000401E4A69520501D50028F9D14869400552
:10088000E3D50320704700000070004010000020F6
:1008900040420F000248006800F4C060704700004A
:1008A000007000402DE9F84F044600270088E54D10
:1008B0003E46010504F1200B1DD5606E78B1B0F500
:1008C000800F11D0B0F5000F04D0B0F5400F22D04A
:1008D00001270FE0E86840F48030E8601BE0002169
:1008E000201D01F069F803E00021584601F0FAF8F4
:1008F000070010D03E462088C00426D5A06EC0B1A7
:10090000B0F1807F1AD0B0F1007F0DD0B0F1407F00
:1009100019D0012718E0D5F88800616E20F4400056
:100920000843C5F88800E6E7E86840F48030E860EE
:1009300009E00021201D01F03FF803E000215846A6
:1009400001F0D0F80746F7B13E46206880033AD55B
:10095000A86D4FF00008C00009D4A86D40F0805089
:10096000A865A86D4FF0010800F080500090DFF8F6
:10097000D8A2DAF8001041F48071CAF80010FFF72D
:100980009FFE814610E0D5F88800A16E20F04070EF
:100990000843C5F88800D8E7FFF792FEA0EB0900EE
:1009A000022801D9032705E0DAF80000C005F3D5D5
:1009B000002F7CD04FEA0706B8F1000F03D0A86DD6
:1009C00020F08050A8652078C00707D0D5F88800AF
:1009D000A16B20F003000843C5F888002078800749
:1009E00007D5D5F88800E16B20F00C000843C5F866
:1009F00088002078400707D5D5F88800216C20F0C2
:100A000030000843C5F888002078000707D5D5F8DE
:100A10008800616C20F0C0000843C5F88800207889
:100A2000C00607D5D5F88800A16C20F440700843B3
:100A3000C5F888002078800607D5D5F88800E16CD5
:100A400020F440600843C5F888002088800507D559
:100A5000D5F88800E16D20F440200843C5F88800EF
:100A60002088400507D5D5F88800216E20F4401075
:100A70000843C5F888002078400607D5D5F88800D7
:100A8000216D20F440500843C5F888002078000606
:100A900007D5D5F88800616D20F440400843C5F8BB
:100AA00088002088C00509D5D5F8880000E01CE042
:100AB000A16D20F440300843C5F8880020884FF02D
:100AC000006780044FF080684FD5D5F88800E16E4C
:100AD00020F040600843C5F88800E06EB8423CD181
:100AE000E86840F48010E8603FE0D5F8900010F42A
:100AF000407015D0D4F88410814211D0D5F8900000
:100B0000D5F8901020F4407041F48031C5F8901071
:100B1000D5F8901021F48031C5F89010C5F89000F8
:100B2000C00710D0FFF7CCFD074641F2883906E038
:100B3000FFF7C6FDC11B494501D903263CE7D5F89F
:100B400090008007F4D5D5F89000D4F8841020F4F4
:100B500040700843C5F890002EE7404505D10121BB
:100B6000201D00F029FF00B106462068000317D5BC
:100B7000D5F88800216F20F040600843C5F8880050
:100B8000206FB84204D1E86840F48010E86007E0C4
:100B9000404505D10121201D00F00EFF00B10646A1
:100BA0002068400317D5D5F88800616F20F04060B9
:100BB0000843C5F88800606FB84204D1E86840F483
:100BC0008010E86007E0404505D10121201D00F0BC
:100BD000F3FE00B10646208840041AD5D5F88800F7
:100BE000A16F20F040500843C5F88800A06FB0F115
:100BF000805F03D0B0F1005F05D00AE00221201D24
:100C000000F0DAFE03E00221584600F06BFF00B16D
:100C100006462088000407D5D5F88800E16F20F04B
:100C200080400843C5F888002068C00307D555F800
:100C3000880FD4F8801020F0004008432860304628
:100C400000F004B8001002400070004018BCBDE87D
:100C5000E08F00002DE9F0470F46050058D0404EC8
:100C6000306800F00700B84209D2306820F0070071
:100C700038433060306800F00700B84248D1287827
:100C8000384CC0072CD06868032811D0022812D035
:100C9000216898B1490500293ADAA16821F00301D9
:100CA0000143A160FFF70CFD804641F2883910E056
:100CB00021688901EFE721688903ECE78907EAE702
:100CC000FFF7FEFCA0EB0801494502D90320BDE86F
:100CD000F087A068696800F00C00B0EB810FEFD1DD
:100CE0002878800705D5A068A96820F0F00008439F
:100CF000A060306800F00700B8420BD9306820F0DF
:100D0000070038433060306800F00700B84201D077
:100D10000120DCE72878400705D5A068E96820F4C1
:100D2000E0600843A0602878000706D5A06829691C
:100D300020F4605040EAC100A06000F05FF8A168B4
:100D4000094AC1F30311515C01F01F01C840074972
:100D5000086007480068BDE8F047FFF7D5BC000011
:100D60000020024000100240982E000810000020D1
:100D7000040000200F2202600C4A936803F0030372
:100D80004360936803F0F0038360936803F4E063C7
:100D9000C36092684FF4E06303EAD2020261044840
:100DA000006800F007000860704700000010024073
:100DB000002002400548064900688968054AC1F3D9
:100DC0000221515C01F01F01C84070471000002053
:100DD00000100240D82E00080548064900688968BE
:100DE000054AC1F3C221515C01F01F01C8407047A0
:100DF0001000002000100240D82E000870B52549D0
:100E0000002318468A68CC6812F00C0204F003062E
:100E1000214C4FEA640509D00C2A05D0042A32D0AF
:100E2000082A00D1284670BD012E10D10B681B077F
:100E300004D4D1F89430C3F3032302E00B68C3F366
:100E40000313164E56F82330DAB10C2AEBD1C868DA
:100E500000F00300022818D0032818D01846CA68EA
:100E6000CB68C2F30212C3F306234343521CB3FB05
:100E7000F2F2C868C0F34160401C4000B2FBF0F0E1
:100E800070BD184670BD204670BD2046E7E7284675
:100E9000E5E70000001002400024F400A82E00083E
:100EA0002DE9F84304006FD0FE4DA86800F00C0651
:100EB000E86800F003072078C00664D576B10C2EF0
:100EC00001D1012F0AD0A069002828687AD040F00B
:100ED00001002860FFF7F4FB80465DE0286880078A
:100EE00002D5A0690028DED0216A2868000703D552
:100EF000286800F0F00004E0D5F89400F02202EA3F
:100F00001010814216D9084600F070FE00283BD12F
:100F1000286840F0080028602868216A20F0F00066
:100F2000084328606868E16920F47F4040EA0120B6
:100F3000686016E0286840F0080028602868216A88
:100F400020F0F000084328606868E16920F47F40E1
:100F500040EA0120686026B9206A00F047FE0028B8
:100F6000D5D1FFF74BFFA968CF4AC1F30311515CFC
:100F700001F01F01C840CD490860CD480068FFF767
:100F8000C3FB00287ED12EE0CAE000BFFFF798FB2C
:100F9000A0EB0800022876D828688007F6D52868D4
:100FA00040F0080028602868216A20F0F00008431B
:100FB00028606868E16920F47F4040EA01206860A9
:100FC00011E0FFE720F001002860FFF779FB804681
:100FD00006E000BFFFF774FBA0EB08000228DAD898
:100FE00028688007F6D42078C00740D0082E18D093
:100FF0000C2E01D1032F14D06068B0F5803F17D0BC
:10100000B0F5A02F286817D020F480302860286819
:1010100020F4802028606068E0B1FFF751FB804633
:1010200014E02868800322D56068002878D01EE08C
:10103000286840F48030EDE740F480202860F7E72E
:10104000FFF73EFBA0EB08006428A4D828688003C3
:10105000F6D50CE0FFF734FB804605E0FFF730FBE8
:10106000A0EB0800642896D828688003F6D420787E
:1010700080073BD5042E11D00C2E01D1022F0DD0AC
:10108000E06801E092E1F1E0002828681ED040F419
:1010900080702860FFF714FB07460CE028684005C5
:1010A0000CD5E0680028C1D008E000BFFFF708FBBE
:1010B000C01B022893D828684005F7D56868217CB2
:1010C00020F0F85040EA016068600FE020F4807082
:1010D0002860FFF7F5FA074605E000BFFFF7F0FAD2
:1010E000C01B0228B1D828684005F7D42078000733
:1010F00029D560690028D5F8940012D040F001008D
:10110000C5F89400FFF7DCFA074604E0FFF7D8FAC9
:10111000C01B022899D8D5F894008007F6D512E0B4
:1011200000E120F00100C5F89400FFF7C9FA074676
:1011300005E000BFFFF7C4FAC01B022885D8D5F828
:1011400094008007F6D42078400766D5A86D002764
:10115000C00008D4A86D40F08050A865A86D012794
:1011600000F08050009053480168C90512D401680E
:10117000814641F480710160FFF7A2FA804605E0E4
:10118000FFF79EFAA0EB080002286FD8D9F80000FC
:10119000C005F5D5A068012816D00528D5F890001F
:1011A00017D020F00100C5F89000D5F8900020F08D
:1011B000040000BFC5F89000A06841F28839C0B1B2
:1011C000FFF77EFA80460FE0D5F8900040F001006E
:1011D000F0E740F00400C5F89000F5E7FFF770FA7B
:1011E000A0EB0801494541D8D5F890008007F5D516
:1011F0000EE0FFF765FA804606E000BFFFF760FAF1
:10120000A0EB0801494531D8D5F890008007F5D406
:101210001FB1A86D20F08050A865A06A38B30228DD
:101220000AD00C2E7ED0286820F0807028602868B4
:1012300010F0205F77D0AAE0E868E26A00F00301CE
:1012400091422BD1216B00F07002090110399142BB
:1012500024D1626B00F4FE41B1EB022F1ED1A26BD0
:1012600000F40031072A03D0012202E09DE089E06A
:101270000022914212D1A18F00F4C0024908490511
:10128000A1F50011914209D194F8401000F0C0601E
:1012900049084906A1F1007181425CD00C2E41D071
:1012A000286809E000100240982E00081000002075
:1012B000040000200070004040017ED42868C00077
:1012C0007BD4286820F080702860FFF7F9F9064683
:1012D00005E000BFFFF7F4F9801B022865D82868F5
:1012E0008001F7D4D4E90B016FF00F0202EB01117A
:1012F0000843A18F5204490802EB4151626B41EA55
:101300000221084394F840104FF07E42490802EB56
:1013100041610843A16B090940EA4140E968284A54
:10132000114001E049E02EE00843E860286840F001
:1013300080702860E86840F08070E860FFF7C0F9CE
:10134000044604E0FFF7BCF9001B02282DD82868EA
:101350008001F7D52FE0286880012CD4286840F060
:1013600080702860E86840F08070E860FFF7A8F9B6
:10137000044604E0FFF7A4F9001B022815D82868EA
:101380008001F7D517E0E86820F00300E860E8681E
:101390000C490840E860FFF793F9044608E000BFF5
:1013A000FFF78EF9001B022802D90320BDE8F8835D
:1013B00028688001F4D40020F8E70120F6E7000057
:1013C0008C809DF9FFFFEEFE70477047704710B5A7
:1013D000040003D094F83D0010B107E0012010BDD7
:1013E000002084F83C00204600F00CF8022084F82D
:1013F0003D00211D206800F0E7FC012084F83D003D
:10140000002010BD704700000168CA6842F0010268
:10141000CA6001688868064A1040062806D0B0F500
:10142000803F03D0086840F001000860002070474A
:1014300007000100704770B50446006801694FF06D
:101440000005C943890715D4C168C943890711D468
:10145000E91E01610120207720688069800720460D
:1014600002D0FFF7E7FF04E000F0A7F8204600F005
:10147000A5F8257720680169C943490717D4C168D1
:10148000C943490713D46FF004010161022020779A
:101490002068806910F4407F204602D0FFF7CAFF21
:1014A00004E000F08AF8204600F088F825772068EC
:1014B0000169C943090716D4C168C943090712D491
:1014C0006FF008010161042020772068C06980075F
:1014D000204602D0FFF7AEFF04E000F06EF8204691
:1014E00000F06CF8257720680169C943C90617D454
:1014F000C168C943C90613D46FF010010161082007
:1015000020772068C06910F4407F204602D0FFF7A2
:1015100091FF04E000F051F8204600F04FF82577E5
:1015200020680169C943C90708D1C168C943C9070F
:1015300004D1891E0161204600F041F8206801694C
:10154000C943090609D4C168C943090605D46FF027
:10155000800101612046FFF738FF20680169C94317
:10156000C90509D4C168C943090605D46FF480715F
:1015700001612046FFF728FF20680169C943490639
:1015800009D4C168C943490605D46FF0400101611F
:10159000204600F01BF820680169C94389060BD476
:1015A000C168C943890607D46FF020010161204654
:1015B000BDE87040FFF70ABF70BD70477047006814
:1015C000B0F1804F01D1FFF781B870477047704785
:1015D000704700002DE9F04102680446D0691168A7
:1015E000936840F60F0528424FF0000505D18606A6
:1015F0007BD58E0679D5216E88E003F0010601F4D3
:101600009077374371D0C70707D0CF0505D501279D
:101610001762E26F42F00102E267820708D5DA073B
:1016200006D0276802223A62E26F42F00402E267C3
:10163000420708D5DA0706D0236804221A62E26F4F
:1016400042F00202E26702070AD501F020023243AB
:1016500006D0236808221A62E26F42F00802E267AD
:10166000020509D54A0107D523684FF400621A62C2
:10167000E26F42F02002E267E26F002A2ED080067D
:1016800005D5880603D5216E09B120468847E06F4D
:1016900021688968490602D410F0280F20D020461E
:1016A00000F092FC20688168490614D5816821F019
:1016B00040018160E06E70B11D498163E06EFEF70C
:1016C0007FFE00280AD0E06E816B00E02046BDE876
:1016D000F041084709E02046FFF77AFFBDE8F081B6
:1016E0002046FFF775FFE567F8E7C60209D55B02FC
:1016F00007D54FF4801010622046BDE8F041FFF797
:1017000066BF030605D50B0603D5616E0029DDD142
:10171000E4E74006E2D54806E0D51168204621F00E
:101720004001116020216167656600F0CAF8D5E7C5
:10173000B51F000810B5040002D0606F10B107E0BB
:10174000012010BD002084F87000204600F026F82B
:10175000242060672068016821F0010101602046B3
:1017600000F042FC0128ECD0606A10B1204600F085
:1017700091FB2068416821F49041416020688168B4
:1017800021F02A0181602068016841F001010160B7
:101790002046BDE8104000F0E1BB000010B586B067
:1017A000044614216846FEF7C8FD164920688842A1
:1017B00026D11548816D41F400218165816D01F4C8
:1017C00000210591C16C41F00101C164C06C02218E
:1017D00000F0010005900320CDE900010021CDE9D2
:1017E00002100820049069464FF09040FEF730FE4A
:1017F000002205213420FEF7E7FF3420FEF7D6FF54
:1018000006B010BD004C0040001002402DE9F84326
:101810000446406F1F4616460D4620284FD1CDB1D5
:10182000C6B194F87000012849D0012084F87000F6
:101830004FF00008C4F87C8021206067FEF740FF6D
:10184000A4F850608146A4F85260A068B0F5805FAB
:1018500003D004E00120BDE8F883206928B12E46BA
:101860005FF0000584F8708010E00026FAE7802120
:10187000204600F003FDB8B9C6B116F8010B216887
:101880000885B4F85200401EA4F85200B4F8520083
:101890004B464FF0000200970028E8D14FF040017E
:1018A000204600F0EBFC30B10320D4E735F8020B02
:1018B000C0F30800E3E7202060670020CBE70220A8
:1018C000C9E77047FEE7000030B587B014216846CD
:1018D000FEF733FD2948C16C41F00401C164C16CBD
:1018E00001F004010591C16C41F08001C164C16C3B
:1018F00001F080010591C16C41F00101C164C16C2E
:1019000001F001010591C16C41F00201C164C06C9C
:101910004FF0904500F0020005900022202128465B
:10192000FEF7C9FE4FF40050009015480024CDE9A1
:10193000010469461348FEF78BFD0C20009002203D
:10194000CDE901040320039007200490694628464E
:10195000FEF77EFD202000900120CDE901046946BC
:1019600028460394FEF774FD002205212820FEF787
:101970002BFF2820FEF71AFF07B030BD00100240F1
:1019800000002110000800480948084901604FF490
:10199000E1314160002181600C22C160C0E9041284
:1019A0008161C16101624162FFF7C4BE004C004029
:1019B00074000020FEE770472DE9F041444C0546D5
:1019C0008846E0680026810728680DD0E16801F0AC
:1019D0000301814216D1A8B1E0686968C0F3021022
:1019E000401C88420ED120E0012804D0022805D0F6
:1019F000032807D108E02168890701E0216849052B
:101A0000002907DB01265FE02168890302D42168F1
:101A10004903F5E7E1686A686FF00F0321F073018D
:101A200003EB021211430143E160206820F0806063
:101A30002060FEF745FE074605E000BFFEF740FECA
:101A4000C01B022837D820680001F7D4B8F1000F76
:101A500018D0B8F1010F1ED0287D4FF07E4140080C
:101A600001EB4060A96840EA01202169194A114050
:101A700008432061206840F080602060FEF720FE6F
:101A800007461AE0A868E9680002090940EA4140EF
:101A90002169114AEBE7288A1049400801EB4050C0
:101AA000A96840EA012021690D4AE0E7FEF708FE37
:101AB000C01B022801D9032606E020680001F5D5E5
:101AC0002069A969084320613046BDE8F081000023
:101AD00000100240FF80FFF9FF80FDFF0000E0FFE3
:101AE000FF809FFF2DE9F0413D4C06468846E068A7
:101AF0000025810730680DD0E16801F003018142C3
:101B000016D1A8B1E0687168C0F30210401C884289
:101B10000ED120E0012804D0022805D0032807D1E7
:101B200008E02168890701E021684905002907DBF1
:101B3000012551E02168890302D421684903F5E7B2
:101B4000E16872686FF00F0321F0730103EB02127A
:101B500011430143E160206820F080502060FEF7CF
:101B6000AFFD074605E000BFFEF7AAFDC01B022837
:101B700029D820688000F7D4B8F1000F15D0307C48
:101B80004FF07E41400801EB4060B16840EA01201F
:101B90006169144A114008436061206840F0805038
:101BA0002060FEF78DFD07460FE0B068F168000287
:101BB000090940EA414061690B4AEBE7FEF780FD05
:101BC000C01B022801D9032506E020688000F5D556
:101BD00060697169084360612846BDE8F0810000D2
:101BE00000100240FF80FFF9FF80FDFFF8B51C4D9B
:101BF00006460024A86DC00002D5FEF74BFE0DE09E
:101C0000A86D40F08050A865A86D00F0805000904D
:101C1000FEF740FEA96D21F08051A965B0F5007F67
:101C200004D0802E07D94FF003040AE0802E08D993
:101C3000A02E01D804E001D1022402E0702E00D1D0
:101C400001240848016821F0070121430160006870
:101C500000F00700A04201D00120F8BD0020F8BD2F
:101C600000100240002002400EB508A240F2F3141A
:101C700007CA8DE807000A23092269460648FFF7CC
:101C8000C5FD2046FEF7C4FBF5E700005461736B09
:101C900020310D0A00000000740000200EB508A2DB
:101CA00040F2F31407CA8DE807000A2309226946A7
:101CB0000648FFF7ABFD2046FEF7AAFBF5E700005C
:101CC0005461736B20320D0A000000007400002084
:101CD000012000F085FBFBE710B5502080F3118850
:101CE000BFF34F8FBFF36F8F01F002F818B10449B3
:101CF0004FF080500860002080F3118810BD000074
:101D000004ED00E010B5B8B0442122A8FEF715FBA1
:101D1000142133A8FEF711FB88216846FEF70DFB5E
:101D20000220C10125911021229026912C900121A1
:101D3000CDE92D010A212F910721CDE930103290F4
:101D400022A8FFF7ADF80F20002433900320CDE93F
:101D500034043694042133A83794FEF77BFF08201F
:101D6000009011946846FEF79DFD4FF40070FEF759
:101D70005DFD38B010BD00000D48016841F47001F0
:101D800001600C48016841F001010160002181609F
:101D90000268094B1A4002608214C260026822F491
:101DA0008022026081610249C00380390860704767
:101DB00088ED00E000100240FFFFF6EA0148FFF75F
:101DC0003ABB0000480300202DE9F0470268264B8B
:101DD000264D274E274F284C4FF0804A984209D075
:101DE000504507D0A84205D0B04203D0B84201D038
:101DF000A04204D122F0700C4A6842EA0C02DFF8DB
:101E00007CC0DFF87C80DFF87C9098420FD0504592
:101E10000DD0A8420BD0B04209D0B84207D0A042A2
:101E200005D0604503D0404501D0484503D122F498
:101E30004075CA682A434D6922F080022A43026035
:101E40008A68C2620A688262984207D0A04205D0BE
:101E5000604503D0404501D0484501D1096901637F
:101E600001214161BDE8F087002C014000040040E1
:101E700000080040000C00400034014000400140D8
:101E800000440140004801400148FFF7A3BB0000A7
:101E90007400002090F82410C90706D001684A6831
:101EA000836A22F400321A434A6090F824108907AA
:101EB00006D501684A68C36A22F480321A434A6030
:101EC00090F82410490706D501684A68036B22F48C
:101ED00080221A434A6090F82410090706D5016849
:101EE0004A68436B22F400421A434A6090F8241077
:101EF000C90606D501688A68836B22F480521A43AA
:101F00008A6090F82410890606D501688A68C36B38
:101F100022F400521A438A6090F82410490611D521
:101F200001684A68036C22F480121A434A60016C0B
:101F3000B1F5801F06D101684A68436C22F4C002E3
:101F40001A434A6090F82410090606D501684A68C9
:101F5000806C22F4002202434A607047F8B50026E4
:101F60000446C667FEF7ACFB0546206800686FF0C4
:101F70007E47000708D52B4600224FF4001120466B
:101F8000009700F07BF960B92068006840070AD527
:101F90002B4600224FF480012046009700F06EF996
:101FA00008B10320F8BD20206067A06784F8706046
:101FB0000020F8BD10B5806A0021A0F85A10A0F8E2
:101FC0005210FFF705FB10BD01680A6822F49072F9
:101FD0000A6001688A6822F001028A602021816714
:101FE00000210166704700002DE9F04105460168B7
:101FF00080682B69EC6918436B69002723431843F9
:10200000924A0B68924C234003430B602868416856
:10201000EB6821F44051194341602968A869914255
:1020200001D02B6A18438B6823F4306303438B6021
:10203000884B2968884899420DD1D0F8880010F063
:10204000030006D0012868D0022864D0032851D1AB
:1020500065E001244FE0814B99420BD1D0F8880014
:1020600010F00C0055D0042857D0082853D00C2865
:1020700040D154E07A4B99420BD1D0F8880010F04F
:10208000300046D0102848D0202844D0302831D104
:1020900045E0744B99420BD1D0F8880010F0C00095
:1020A00037D0402839D0802835D0C02822D136E01A
:1020B0006D4B99420ED1D0F8880010F4407028D0B2
:1020C000B0F5807F29D0B0F5007F24D0B0F5407FF7
:1020D00010D124E091420DD1D0F8880010F4406076
:1020E00017D0B0F5806F18D0B0F5006F13D0B0F5F1
:1020F000406F14D010245D4B00264FF400409142F5
:1021000045D174B1022C0FD0042C0FD0082C18D15B
:102110000FE00024EFE70224EDE70424EBE70824B6
:10212000E9E7FEF747FE03E0184602E0FEF766FE29
:10213000A8B36A6802EB4201814202D8B0EB023FC9
:1021400001D901276FE0DFF828815CB1022C0CD0A7
:10215000042C13D0082CF4D150082105401846F166
:10216000000105E0FEF726FE0AE050084149F5E7C8
:102170000023FEF795F8A0F5407150E0FEF73EFE13
:102180006A68010E0302500818187141F0E7E96906
:102190004FF6EF7881422FD1092CD2D200E042E0F5
:1021A000DFE804F006092005230505052600C8E739
:1021B000FEF700FE01E0FEF70FFE4100D5F8040037
:1021C00001EB5001B1FBF0F080B2A0F110014145EC
:1021D000B7D84FF6F0710140C0F3420001432868C0
:1021E000C16020E024496868EAE7FEF707FEE4E7FB
:1021F0004FF480316868E3E7092CA2D2DFE804F0ED
:10220000060918051E05050520009AE7FEF7D2FD10
:1022100016E0FEF7E1FD13E080B2A0F110014145A8
:102220008FD82968C8602E6638466E66BDE8F08192
:10223000686803EB5001B1FBF0F0EDE7FEF7DEFD5F
:10224000696800EB5100B0FBF1F0E5E70080004069
:10225000F369FFEF003801400010024000440040E5
:1022600000480040004C0040005000400024F400B2
:10227000FFFC0F00000024F40048E8012DE9F047BE
:102280009A4617460E4604464FF000094FF02008C4
:10229000089D39E0681C37D0FEF712FAA0EB0A005F
:1022A000A84222D80DB32068016849072CD5C0691F
:1022B000C043000528D421684FF4006008622068FC
:1022C000016821F4D07101602068816821F001016A
:1022D0008160C4F87480C4F87880C4F87C8000BF42
:1022E00084F870900320BDE8F0872068016821F42D
:1022F000D07101602068816821F001018160C4F81B
:102300007480C4F87880EBE72068C06936EA000082
:1023100004D00020B842BDD00020E4E70120F9E756
:10232000FEE70907090E002804DB00F1E02080F831
:102330000014704700F00F0000F1E02080F8141D39
:10234000704702E008C8121F08C1002AFAD170477E
:102350007047002001E001C1121F002AFBD1704725
:102360008AB0FEF7BBF9FFF7CDFCFFF7ADFAFFF738
:102370000BFB1C220F4902A8FDF7C6FF002102A893
:1023800000F03AF80C490025012408602B46802211
:102390000AA10C48CDE9004500F04EFC0023802244
:1023A00009A10B48CDE9004500F046FC00F01FF8FC
:1023B000FEE700007C2E0008000000205461736BD3
:1023C00020310000691C00085461736B203200004A
:1023D0009D1C000801460020842900D0C81C7047BD
:1023E00010B500B9012000F01BFB002010BD10B596
:1023F00000F03CFB002010BD7FB50D46044641694E
:10240000B0F9080081B1A16971B1FFF7E3FFD4E928
:1024100005128DE80700D4E900102B46226900F070
:102420003BFC039004B070BDFFF7D4FF03A9CDE9D6
:102430000001208A2B4682B2D4E9001000F0FCFB98
:10244000012801D00020EDE70398EBE72DE9F041EA
:10245000184C0F46054666692068001D00F01CFAFE
:1024600038B9206890F82C1001208840A169814378
:10247000A161681C07D137B12168BDE8F0410E4861
:10248000091D00F04DBA20683544B5424560216809
:1024900005D2A068BDE8F041091D00F029BA6068C6
:1024A000091D00F025FA206B854200D22563BDE8A6
:1024B000F081000014000020640400202DE9F041A8
:1024C000054600F039FA2E4C2069401C2061206836
:1024D0002C4F10B1E06940B32DE025602069012840
:1024E00029D1002606EB860007EB800000F0F2F908
:1024F000761C072EF6D323488C3000F0EBF92148E8
:10250000A03000F0E7F91F48B43000F0E3F91D48AF
:10251000C83000F0DFF91B48DC3000F0DBF9194867
:102520008C3060601430A06005E02068E96AC06A01
:10253000884200D82560E06A401CE062E96A012018
:10254000A26988401043A06101EB810007EB800085
:10255000291D00F0E5F900F00FFAE06900280CD021
:102560002068E96AC06A884207D207494FF0805064
:102570000860BFF34F8FBFF36F8FBDE8F08100009D
:10258000140000208803002004ED00E010B504468C
:1025900090F8510058B101280CD002280FD05020DB
:1025A00080F31188BFF34F8FBFF36F8FFEE7206B6F
:1025B00000F0F6F92046BDE8104000F0F1B910BD7A
:1025C0000F4840F6B831420705D0C01D0C4A20F034
:1025D0000700821A891A0B4A00230144C2E900034A
:1025E0000839103A21F0070111604B600B600B1A9B
:1025F000C0E9001393604FF000405360D060704713
:102600007804002060000020144E154CA6F1C80785
:102610004FF08058DFF84C9012E000BF00F08CF9CA
:10262000F068C568281D00F037F92069401E206158
:10263000E068401EE06000F09FF92846FFF7A6FF23
:10264000E0680028EAD138680128F9D9C9F8008083
:10265000BFF34F8FBFF36F8FF2E7000050040020ED
:102660001400002004ED00E02DE9F0479A46DDE972
:10267000098481466FF00303206B03EB8202104450
:10268000089E20F00707780707D0502080F31188B4
:10269000BFF34F8FBFF36F8FFEE7002561B10020BE
:1026A00023180A5C83F834200A5C12B1401C1028FD
:1026B000F6D384F8435001E084F83450072E00D359
:1026C0000626E662C4E91165201D00F00EF904F14A
:1026D000180000F00AF92461C6F107006462A061E5
:1026E000E56484F8505052464946384600F0BEF83A
:1026F0002060B8F1000F01D0C8F80040BDE8F087B5
:1027000030B5114900E011460A688242FBD34B689C
:102710005C18844203D14068184448600846436806
:102720001C18944209D1084C103C2468A24209D0DC
:1027300052681A4442600A6812680260814200D0FE
:10274000086030BD0460F9E7600000200648416879
:10275000096829B14168C968C96849680163704757
:102760004FF0FF31FAE700001400002008484068ED
:10277000401C4FF0500080F3118804D0BFF34F8FFE
:10278000BFF36F8FFEE7BFF34F8FBFF36F8FFEE78F
:10279000680000202DE9F0410546002700F09CF973
:1027A000314E306808B9FFF70BFFF06805424BD196
:1027B000C5B3083568070ED005F00700C0F1080062
:1027C0000544680707D0502080F31188BFF34F8F6E
:1027D000BFF36F8FFEE72DB37068854234D822486F
:1027E000103001460C6801E020460C466168A942A1
:1027F00002D221680029F7D131688C4224D00768C1
:102800002168016060680837411B10290FD96019E1
:10281000420708D0502080F31188BFF34F8FBFF3D9
:102820006F8FFEE710E041606560FFF769FF616848
:102830007068401A7060B268904200D2B060F06870
:1028400001430020C4E9000100F0B6FA780707D080
:10285000502080F31188BFF34F8FBFF36F8FFEE7D7
:102860003846BDE8F08100005000002010B5031F7D
:102870004FF080741C601B1F21F001011960191FAB
:10288000044B0B6014390A60091F6FF002024438D0
:102890000A6010BD6D270008D0E9013201699A6015
:1028A000D0E901235A604A68824201D182684A60B5
:1028B000002202610868401E086008687047000036
:1028C000034B036003F154000860802010607047E0
:1028D000F400002000F108014FF0FF32C0E90112BE
:1028E000C1600161002101607047002101617047F2
:1028F00030B50B685A1C02D000F1080202E00269F0
:1029000004E02246546825689D42FAD953684B601A
:1029100099608A60516008610168491C016030BD9E
:1029200042684A6093688B6093685960916008615F
:102930000168491C01607047502080F31188BFF383
:102940004F8FBFF36F8F0A494868401C48600128C9
:102950000CD10848006810F0FF0F07D0502080F31A
:102960001188BFF34F8FBFF36F8FFEE770470000F2
:102970006800002004ED00E00849486828B1401EC6
:10298000486001D180F311887047502080F311888E
:10299000BFF34F8FBFF36F8FFEE70000680000208A
:1029A00070B5002827D0144DA0F108046168E868CC
:1029B000014207D1502080F31188BFF34F8FBFF33E
:1029C0006F8FFEE722683AB1502080F31188BFF381
:1029D0004F8FBFF36F8FFEE78143616000F07CF89B
:1029E00060686968084468602046FFF789FEBDE8B2
:1029F000704000F0E1B970BD500000204FF0E020C1
:102A000000210161816105494FF47A720968B1FBC7
:102A1000F2F1491E41610721016170471000002059
:102A200010B5020014D00F48806B38B1502080F3ED
:102A30001188BFF34F8FBFF36F8FFEE700F04CF8A4
:102A400000211046FFF702FD00F0B6F9002807D17B
:102A500005494FF080500860BFF34F8FBFF36F8F71
:102A600010BD00001400002004ED00E010B586B099
:102A70000024039405AA04A903A80494FFF720FFE7
:102A8000DDE903010094CDE9011000230EA11048F7
:102A9000059A00F001F90F490028486311D0502031
:102AA00080F31188BFF34F8FBFF36F8F4FF0FF306C
:102AB00008630120C8614C6106B0BDE8104000F019
:102AC00041B806B010BD000049444C45000000006C
:102AD00009260008140000200248816B491C81630C
:102AE00070470000140000201448816B11B10121CF
:102AF00041627047002141628169B1FA81F1C1F1FF
:102B00001F0101EB81020E4951F822306BB101EB3C
:102B1000820101F108034A6852684A609A4201D171
:102B200052684A60D16801607047502080F3118874
:102B3000BFF34F8FBFF36F8FFEE70000140000203C
:102B4000880300201CB537480168374A914207D1F5
:102B5000502080F31188BFF34F8FBFF36F8FFEE7D4
:102B600000683149491E884207D1502080F31188FE
:102B7000BFF34F8FBFF36F8FFEE72C4908780190AA
:102B8000FF20087008788DF800009DF800009DF87F
:102B9000002000F0F000904207D0502080F3118810
:102BA000BFF34F8FBFF36F8FFEE79DF80000204B00
:102BB00000F0500018700720986005E09DF8002094
:102BC00052008DF80020401E9DF800201206F5D41A
:102BD0009860032807D0502080F31188BFF34F8FEF
:102BE000BFF36F8FFEE74FF4407098600198087054
:102BF0000C482030016841F470010160016841F027
:102C000070410160FFF7FAFE00205860FDF7EAFA14
:102C10000848016841F040410160FDF7CFFA00200B
:102C20001CBD000000ED00E071C20F4100E400E0B7
:102C30006800002034EF00E02DE9FF5F8346DDE906
:102C40000E87994616468A469000FFF7A3FD0500B9
:102C50001CD05420FFF79EFD040014D000202563F3
:102C600084F85100CDE90240CDE900874B46324659
:102C700051465846FFF7F8FC2046FFF71FFC01209D
:102C800004B000F006B82846FFF78AFE4FF0FF3088
:102C9000F6E730BCBDE8C09FF0B585B0DDE90B6458
:102CA0000A9DA6B1DCB1542700972663022684F85A
:102CB0005160002604AFCDE90246CDE90057FFF789
:102CC000D3FC2046FFF7FAFB049805B0F0BD502076
:102CD00080F31188BFF34F8FBFF36F8FFEE7502053
:102CE00080F31188BFF34F8FBFF36F8FFEE70000B3
:102CF0002DE9F0412E4C0027A06B40B1206A401C0A
:102D00002062606A00B101273846BDE8F08166693B
:102D1000761C666113D16068006838B1502080F37A
:102D20001188BFF34F8FBFF36F8FFEE76068A16814
:102D30006160A060A06A401CA062FFF707FD206BE5
:102D4000DFF87080864209D36068006880B16068EF
:102D5000C068C568686886420DD220632068C06A72
:102D600000EB800158F821000128CAD90127C8E7E3
:102D70004FF0FF30F1E7281DFFF78EFDA86A18B16C
:102D800005F11800FFF788FDE86A0121A26981407A
:102D90001143A16100EB800108EB8100291DFFF7C1
:102DA000BFFDE86A2168C96A8842CDD30127CBE715
:102DB00014000020880300202DE9F0472C4D00244A
:102DC0002746A86B38B1FFF7B7FDA86B401EA86374
:102DD000A86B40B146E0502080F31188BFF34F8FBD
:102DE000BFF36F8FFEE72969224E0120D1B3A6F110
:102DF000B40980463068E8B1F068C46804F118008E
:102E0000FFF74AFD201DFFF747FDE06AAA6908FAAF
:102E100000F11143A96100EB800109EB8100211D44
:102E2000FFF77EFDE06A2968C96A8842E2D3C5F8E7
:102E30002480DFE70CB1FFF789FC2C6A44B14646D9
:102E4000FFF756FF00B16E62641EF9D100202862C0
:102E5000686A38B10849012738070860BFF34F8F07
:102E6000BFF36F8FFFF788FD3846BDE8F08700009D
:102E7000140000203C04002004ED00E0E02E0008D7
:102E8000D11C0008000000000000000080000000CD
:102E90000000000000000000000000000000000032
:102EA0000102030406070809A0860100400D030083
:102EB000801A060000350C0040420F0080841E007E
:102EC00000093D0000127A000024F40000366E0173
:102ED0000048E801006CDC0200000000010203046D
:102EE00064656661756C745461736B000C2F000827
:102EF000000000207400000042230008802F00081A
:102F000074000020BC1300005223000800000000E1
:102F100010000000010000000000000000093D005A
:102F200000000000000000000000000000000000A1
:102F30000000000000000000000000000000000091
:102F40000000000000000000000000000000000081
:102F50000000000000000000000000000000000071
:102F60000000000000000000000000000000000061
:102F70000000000000000000AAAAAAAA00000000A9
:040000050800018965
:00000001FF
